:0400000042EF7FF05C
:10FE83000A830EF66EFE0EF76E000EF86E0900F58D
:10FE9300CF10F000EE01F00D0EEE6AE806FDE10072
:10FEA3000154EF7FF09496938693949498330E0FB6
:10FEB3006EBB0E0E6EE00EE82EFED70E2EFCD70F95
:10FEC3002EFAD7800E6F6E6E50E00B800AD8A46DA9
:10FED300EF7FF06FEF7FF065EF7FF0000E726E0142
:10FEE3000E706E000E0E01FA6F000EFB6F000EF81F
:10FEF3006F000EF96F000EFE6F000EFF6F000EFC19
:10FF03006F000EFD6F000EE26F000EE36F000EE058
:10FF13006F000EE16F000EE66F000EE76F000EE458
:10FF23006F000EE56F000EEA6F000EEB6F000EE838
:10FF33006F000EE96F000EEE6F000EEF6F000EEC18
:10FF43006F000EED6F000EF26F000EF36F000EF0F8
:10FF53006F000EF16F000EF66F000EF76F000EF4D8
:10FF63006F000EF56F3F0E436FF10E446F050E45A4
:10FF73006F708A70803F0E7216000E6F6E6ECF0E1A
:10FF8300F0E00E0E16D8A4C9EF7FF0CBEF7FF0C0E0
:10FF9300EF7FF01F0E6F166ECF0EF0E00E0E16D829
:10FFA300A4D6EF7FF0D8EF7FF0CDEF7FF0080E6F90
:10FFB3006E0F0120B7E0EF7FF0E2EF7FF0F3EF7F0A
:10FFC300F0000E236F000E246F000E216F000E222F
:10FFD3006F050E256F020E266F000E276F010E2888
:10FFE3006F20878B76410E0E6EEE0EE82EFED70E37
:0DFFF3002EFCD700D0F3EF7FF000EF00F000
:020000040020DA
:08000000FFFFFFFFFFFFFFFF00
:020000040030CA
:0E0000001D027F7FFF8991FF0FC00FE00F40B0
:00000001FF
